{
  "contractName": "MetaCoin",
  "abi": [
    {
      "constant": true,
      "inputs": [],
      "name": "mintingFinished",
      "outputs": [
        {
          "name": "",
          "type": "bool"
        }
      ],
      "payable": false,
      "stateMutability": "view",
      "type": "function"
    },
    {
      "constant": false,
      "inputs": [
        {
          "name": "_spender",
          "type": "address"
        },
        {
          "name": "_value",
          "type": "uint256"
        }
      ],
      "name": "approve",
      "outputs": [
        {
          "name": "",
          "type": "bool"
        }
      ],
      "payable": false,
      "stateMutability": "nonpayable",
      "type": "function"
    },
    {
      "constant": true,
      "inputs": [],
      "name": "totalSupply",
      "outputs": [
        {
          "name": "",
          "type": "uint256"
        }
      ],
      "payable": false,
      "stateMutability": "view",
      "type": "function"
    },
    {
      "constant": false,
      "inputs": [
        {
          "name": "_from",
          "type": "address"
        },
        {
          "name": "_to",
          "type": "address"
        },
        {
          "name": "_value",
          "type": "uint256"
        }
      ],
      "name": "transferFrom",
      "outputs": [
        {
          "name": "",
          "type": "bool"
        }
      ],
      "payable": false,
      "stateMutability": "nonpayable",
      "type": "function"
    },
    {
      "constant": true,
      "inputs": [],
      "name": "INITIAL_SUPPLY",
      "outputs": [
        {
          "name": "",
          "type": "uint256"
        }
      ],
      "payable": false,
      "stateMutability": "view",
      "type": "function"
    },
    {
      "constant": true,
      "inputs": [],
      "name": "decimals",
      "outputs": [
        {
          "name": "",
          "type": "uint8"
        }
      ],
      "payable": false,
      "stateMutability": "view",
      "type": "function"
    },
    {
      "constant": false,
      "inputs": [
        {
          "name": "_to",
          "type": "address"
        },
        {
          "name": "_amount",
          "type": "uint256"
        }
      ],
      "name": "mint",
      "outputs": [
        {
          "name": "",
          "type": "bool"
        }
      ],
      "payable": false,
      "stateMutability": "nonpayable",
      "type": "function"
    },
    {
      "constant": false,
      "inputs": [
        {
          "name": "_spender",
          "type": "address"
        },
        {
          "name": "_subtractedValue",
          "type": "uint256"
        }
      ],
      "name": "decreaseApproval",
      "outputs": [
        {
          "name": "",
          "type": "bool"
        }
      ],
      "payable": false,
      "stateMutability": "nonpayable",
      "type": "function"
    },
    {
      "constant": true,
      "inputs": [
        {
          "name": "_owner",
          "type": "address"
        }
      ],
      "name": "balanceOf",
      "outputs": [
        {
          "name": "",
          "type": "uint256"
        }
      ],
      "payable": false,
      "stateMutability": "view",
      "type": "function"
    },
    {
      "constant": false,
      "inputs": [],
      "name": "renounceOwnership",
      "outputs": [],
      "payable": false,
      "stateMutability": "nonpayable",
      "type": "function"
    },
    {
      "constant": false,
      "inputs": [],
      "name": "finishMinting",
      "outputs": [
        {
          "name": "",
          "type": "bool"
        }
      ],
      "payable": false,
      "stateMutability": "nonpayable",
      "type": "function"
    },
    {
      "constant": true,
      "inputs": [],
      "name": "owner",
      "outputs": [
        {
          "name": "",
          "type": "address"
        }
      ],
      "payable": false,
      "stateMutability": "view",
      "type": "function"
    },
    {
      "constant": false,
      "inputs": [
        {
          "name": "_to",
          "type": "address"
        },
        {
          "name": "_value",
          "type": "uint256"
        }
      ],
      "name": "transfer",
      "outputs": [
        {
          "name": "",
          "type": "bool"
        }
      ],
      "payable": false,
      "stateMutability": "nonpayable",
      "type": "function"
    },
    {
      "constant": false,
      "inputs": [
        {
          "name": "_spender",
          "type": "address"
        },
        {
          "name": "_addedValue",
          "type": "uint256"
        }
      ],
      "name": "increaseApproval",
      "outputs": [
        {
          "name": "",
          "type": "bool"
        }
      ],
      "payable": false,
      "stateMutability": "nonpayable",
      "type": "function"
    },
    {
      "constant": true,
      "inputs": [
        {
          "name": "_owner",
          "type": "address"
        },
        {
          "name": "_spender",
          "type": "address"
        }
      ],
      "name": "allowance",
      "outputs": [
        {
          "name": "",
          "type": "uint256"
        }
      ],
      "payable": false,
      "stateMutability": "view",
      "type": "function"
    },
    {
      "constant": false,
      "inputs": [
        {
          "name": "_newOwner",
          "type": "address"
        }
      ],
      "name": "transferOwnership",
      "outputs": [],
      "payable": false,
      "stateMutability": "nonpayable",
      "type": "function"
    },
    {
      "inputs": [],
      "payable": false,
      "stateMutability": "nonpayable",
      "type": "constructor"
    },
    {
      "anonymous": false,
      "inputs": [
        {
          "indexed": false,
          "name": "_question",
          "type": "string"
        },
        {
          "indexed": false,
          "name": "_value",
          "type": "uint256"
        },
        {
          "indexed": false,
          "name": "_id",
          "type": "uint256"
        }
      ],
      "name": "QuestionAsked",
      "type": "event"
    },
    {
      "anonymous": false,
      "inputs": [
        {
          "indexed": false,
          "name": "_asker",
          "type": "address"
        },
        {
          "indexed": false,
          "name": "_reason",
          "type": "string"
        }
      ],
      "name": "QuestionFailed",
      "type": "event"
    },
    {
      "anonymous": false,
      "inputs": [
        {
          "indexed": false,
          "name": "_question",
          "type": "string"
        },
        {
          "indexed": false,
          "name": "_answer",
          "type": "string"
        },
        {
          "indexed": false,
          "name": "_value",
          "type": "uint256"
        },
        {
          "indexed": false,
          "name": "_id",
          "type": "uint256"
        }
      ],
      "name": "Answered",
      "type": "event"
    },
    {
      "anonymous": false,
      "inputs": [
        {
          "indexed": false,
          "name": "_answerer",
          "type": "address"
        },
        {
          "indexed": false,
          "name": "_reason",
          "type": "string"
        },
        {
          "indexed": false,
          "name": "_id",
          "type": "uint256"
        }
      ],
      "name": "AnswerFailed",
      "type": "event"
    },
    {
      "anonymous": false,
      "inputs": [
        {
          "indexed": false,
          "name": "_test",
          "type": "uint256"
        }
      ],
      "name": "Debug",
      "type": "event"
    },
    {
      "anonymous": false,
      "inputs": [
        {
          "indexed": true,
          "name": "to",
          "type": "address"
        },
        {
          "indexed": false,
          "name": "amount",
          "type": "uint256"
        }
      ],
      "name": "Mint",
      "type": "event"
    },
    {
      "anonymous": false,
      "inputs": [],
      "name": "MintFinished",
      "type": "event"
    },
    {
      "anonymous": false,
      "inputs": [
        {
          "indexed": true,
          "name": "previousOwner",
          "type": "address"
        }
      ],
      "name": "OwnershipRenounced",
      "type": "event"
    },
    {
      "anonymous": false,
      "inputs": [
        {
          "indexed": true,
          "name": "previousOwner",
          "type": "address"
        },
        {
          "indexed": true,
          "name": "newOwner",
          "type": "address"
        }
      ],
      "name": "OwnershipTransferred",
      "type": "event"
    },
    {
      "anonymous": false,
      "inputs": [
        {
          "indexed": true,
          "name": "owner",
          "type": "address"
        },
        {
          "indexed": true,
          "name": "spender",
          "type": "address"
        },
        {
          "indexed": false,
          "name": "value",
          "type": "uint256"
        }
      ],
      "name": "Approval",
      "type": "event"
    },
    {
      "anonymous": false,
      "inputs": [
        {
          "indexed": true,
          "name": "from",
          "type": "address"
        },
        {
          "indexed": true,
          "name": "to",
          "type": "address"
        },
        {
          "indexed": false,
          "name": "value",
          "type": "uint256"
        }
      ],
      "name": "Transfer",
      "type": "event"
    },
    {
      "constant": false,
      "inputs": [
        {
          "name": "question",
          "type": "string"
        }
      ],
      "name": "askQuestion",
      "outputs": [
        {
          "name": "",
          "type": "bool"
        }
      ],
      "payable": false,
      "stateMutability": "nonpayable",
      "type": "function"
    },
    {
      "constant": false,
      "inputs": [
        {
          "name": "cost",
          "type": "uint256"
        }
      ],
      "name": "setQuestionCost",
      "outputs": [],
      "payable": false,
      "stateMutability": "nonpayable",
      "type": "function"
    },
    {
      "constant": true,
      "inputs": [],
      "name": "getQuestionCost",
      "outputs": [
        {
          "name": "",
          "type": "uint256"
        }
      ],
      "payable": false,
      "stateMutability": "view",
      "type": "function"
    },
    {
      "constant": true,
      "inputs": [],
      "name": "getQuestionCount",
      "outputs": [
        {
          "name": "",
          "type": "uint256"
        }
      ],
      "payable": false,
      "stateMutability": "view",
      "type": "function"
    },
    {
      "constant": true,
      "inputs": [
        {
          "name": "question_id",
          "type": "uint256"
        }
      ],
      "name": "getQuestionByID",
      "outputs": [
        {
          "name": "question",
          "type": "string"
        },
        {
          "name": "isAnswered",
          "type": "bool"
        },
        {
          "name": "answer",
          "type": "string"
        }
      ],
      "payable": false,
      "stateMutability": "view",
      "type": "function"
    },
    {
      "constant": false,
      "inputs": [
        {
          "name": "question_id",
          "type": "uint256"
        },
        {
          "name": "answer",
          "type": "string"
        }
      ],
      "name": "answerQuestion",
      "outputs": [
        {
          "name": "",
          "type": "bool"
        }
      ],
      "payable": false,
      "stateMutability": "nonpayable",
      "type": "function"
    },
    {
      "constant": false,
      "inputs": [
        {
          "name": "question_id",
          "type": "uint256"
        },
        {
          "name": "answer",
          "type": "string"
        },
        {
          "name": "receivers",
          "type": "address[]"
        }
      ],
      "name": "bulkAnswerQuestion",
      "outputs": [
        {
          "name": "",
          "type": "bool"
        }
      ],
      "payable": false,
      "stateMutability": "nonpayable",
      "type": "function"
    }
  ],
  "bytecode": "0x60806040526000600360146101000a81548160ff0219169083151502179055506040805190810160405280600481526020017f4d45544100000000000000000000000000000000000000000000000000000000815250600690805190602001906200006c9291906200036f565b506040805190810160405280600981526020017f4d657461546f6b656e000000000000000000000000000000000000000000000081525060079080519060200190620000ba9291906200036f565b506002600860006101000a81548160ff021916908360ff160217905550348015620000e457600080fd5b5033600360006101000a81548173ffffffffffffffffffffffffffffffffffffffff021916908373ffffffffffffffffffffffffffffffffffffffff1602179055506200014333612ee06200014a640100000000026401000000009004565b506200041e565b6000600360009054906101000a900473ffffffffffffffffffffffffffffffffffffffff1673ffffffffffffffffffffffffffffffffffffffff163373ffffffffffffffffffffffffffffffffffffffff16141515620001a957600080fd5b600360149054906101000a900460ff16151515620001c657600080fd5b620001eb82600154620003526401000000000262002bf9179091906401000000009004565b60018190555062000252826000808673ffffffffffffffffffffffffffffffffffffffff1673ffffffffffffffffffffffffffffffffffffffff16815260200190815260200160002054620003526401000000000262002bf9179091906401000000009004565b6000808573ffffffffffffffffffffffffffffffffffffffff1673ffffffffffffffffffffffffffffffffffffffff168152602001908152602001600020819055508273ffffffffffffffffffffffffffffffffffffffff167f0f6798a560793a54c3bcfe86a93cde1e73087d944c0ea20544137d4121396885836040518082815260200191505060405180910390a28273ffffffffffffffffffffffffffffffffffffffff16600073ffffffffffffffffffffffffffffffffffffffff167fddf252ad1be2c89b69c2b068fc378daa952ba7f163c4a11628f55a4df523b3ef846040518082815260200191505060405180910390a36001905092915050565b600081830190508281101515156200036657fe5b80905092915050565b828054600181600116156101000203166002900490600052602060002090601f016020900481019282601f10620003b257805160ff1916838001178555620003e3565b82800160010185558215620003e3579182015b82811115620003e2578251825591602001919060010190620003c5565b5b509050620003f29190620003f6565b5090565b6200041b91905b8082111562000417576000816000905550600101620003fd565b5090565b90565b612ea3806200042e6000396000f300608060405260043610610133576000357c0100000000000000000000000000000000000000000000000000000000900463ffffffff168063057dc9e91461013857806305d2035b14610255578063095ea7b31461028457806318160ddd146102e957806323b872dd146103145780632ff2e9dc14610399578063313ce567146103c457806340c10f19146103f5578063447e52a01461045a5780635dfe7182146104e5578063602bdec814610512578063661884631461056557806370a08231146105ca578063715018a6146106215780637238ca95146106385780637d64bcb4146106635780638da5cb5b146106925780639baee2a3146106e9578063a9059cbb146107b7578063d73dd6231461081c578063dd41cc2f14610881578063dd62ed3e146108ac578063f2fde38b14610923575b600080fd5b34801561014457600080fd5b5061016360048036038101908080359060200190929190505050610966565b60405180806020018415151515815260200180602001838103835286818151815260200191508051906020019080838360005b838110156101b1578082015181840152602081019050610196565b50505050905090810190601f1680156101de5780820380516001836020036101000a031916815260200191505b50838103825284818151815260200191508051906020019080838360005b838110156102175780820151818401526020810190506101fc565b50505050905090810190601f1680156102445780820380516001836020036101000a031916815260200191505b509550505050505060405180910390f35b34801561026157600080fd5b5061026a610b42565b604051808215151515815260200191505060405180910390f35b34801561029057600080fd5b506102cf600480360381019080803573ffffffffffffffffffffffffffffffffffffffff16906020019092919080359060200190929190505050610b55565b604051808215151515815260200191505060405180910390f35b3480156102f557600080fd5b506102fe610c47565b6040518082815260200191505060405180910390f35b34801561032057600080fd5b5061037f600480360381019080803573ffffffffffffffffffffffffffffffffffffffff169060200190929190803573ffffffffffffffffffffffffffffffffffffffff16906020019092919080359060200190929190505050610c51565b604051808215151515815260200191505060405180910390f35b3480156103a557600080fd5b506103ae61100c565b6040518082815260200191505060405180910390f35b3480156103d057600080fd5b506103d9611012565b604051808260ff1660ff16815260200191505060405180910390f35b34801561040157600080fd5b50610440600480360381019080803573ffffffffffffffffffffffffffffffffffffffff16906020019092919080359060200190929190505050611025565b604051808215151515815260200191505060405180910390f35b34801561046657600080fd5b506104cb60048036038101908080359060200190929190803590602001908201803590602001908080601f016020809104026020016040519081016040528093929190818152602001838380828437820191505050505050919291929050505061120b565b604051808215151515815260200191505060405180910390f35b3480156104f157600080fd5b50610510600480360381019080803590602001909291905050506117f3565b005b34801561051e57600080fd5b5061054b600480360381019080803590602001908201803590602001919091929391929390505050611859565b604051808215151515815260200191505060405180910390f35b34801561057157600080fd5b506105b0600480360381019080803573ffffffffffffffffffffffffffffffffffffffff16906020019092919080359060200190929190505050611a92565b604051808215151515815260200191505060405180910390f35b3480156105d657600080fd5b5061060b600480360381019080803573ffffffffffffffffffffffffffffffffffffffff169060200190929190505050611d24565b6040518082815260200191505060405180910390f35b34801561062d57600080fd5b50610636611d6c565b005b34801561064457600080fd5b5061064d611e71565b6040518082815260200191505060405180910390f35b34801561066f57600080fd5b50610678611e7b565b604051808215151515815260200191505060405180910390f35b34801561069e57600080fd5b506106a7611f43565b604051808273ffffffffffffffffffffffffffffffffffffffff1673ffffffffffffffffffffffffffffffffffffffff16815260200191505060405180910390f35b3480156106f557600080fd5b5061079d60048036038101908080359060200190929190803590602001908201803590602001908080601f016020809104026020016040519081016040528093929190818152602001838380828437820191505050505050919291929080359060200190820180359060200190808060200260200160405190810160405280939291908181526020018383602002808284378201915050505050509192919290505050611f69565b604051808215151515815260200191505060405180910390f35b3480156107c357600080fd5b50610802600480360381019080803573ffffffffffffffffffffffffffffffffffffffff169060200190929190803590602001909291905050506126c8565b604051808215151515815260200191505060405180910390f35b34801561082857600080fd5b50610867600480360381019080803573ffffffffffffffffffffffffffffffffffffffff169060200190929190803590602001909291905050506128e8565b604051808215151515815260200191505060405180910390f35b34801561088d57600080fd5b50610896612ae4565b6040518082815260200191505060405180910390f35b3480156108b857600080fd5b5061090d600480360381019080803573ffffffffffffffffffffffffffffffffffffffff169060200190929190803573ffffffffffffffffffffffffffffffffffffffff169060200190929190505050612af1565b6040518082815260200191505060405180910390f35b34801561092f57600080fd5b50610964600480360381019080803573ffffffffffffffffffffffffffffffffffffffff169060200190929190505050612b78565b005b606060006060610974612d27565b600580549050600186011115151561098b57600080fd5b60058581548110151561099a57fe5b906000526020600020906004020160806040519081016040529081600082018054600181600116156101000203166002900480601f016020809104026020016040519081016040528092919081815260200182805460018160011615610100020316600290048015610a4d5780601f10610a2257610100808354040283529160200191610a4d565b820191906000526020600020905b815481529060010190602001808311610a3057829003601f168201915b50505050508152602001600182015481526020016002820160009054906101000a900460ff16151515158152602001600382018054600181600116156101000203166002900480601f016020809104026020016040519081016040528092919081815260200182805460018160011615610100020316600290048015610b145780601f10610ae957610100808354040283529160200191610b14565b820191906000526020600020905b815481529060010190602001808311610af757829003601f168201915b5050505050815250509050806000015181604001518260600151829250809050935093509350509193909250565b600360149054906101000a900460ff1681565b600081600260003373ffffffffffffffffffffffffffffffffffffffff1673ffffffffffffffffffffffffffffffffffffffff16815260200190815260200160002060008573ffffffffffffffffffffffffffffffffffffffff1673ffffffffffffffffffffffffffffffffffffffff168152602001908152602001600020819055508273ffffffffffffffffffffffffffffffffffffffff163373ffffffffffffffffffffffffffffffffffffffff167f8c5be1e5ebec7d5bd14f71427d1e84f3dd0314c0f7b2291e5b200ac8c7c3b925846040518082815260200191505060405180910390a36001905092915050565b6000600154905090565b60008060008573ffffffffffffffffffffffffffffffffffffffff1673ffffffffffffffffffffffffffffffffffffffff168152602001908152602001600020548211151515610ca057600080fd5b600260008573ffffffffffffffffffffffffffffffffffffffff1673ffffffffffffffffffffffffffffffffffffffff16815260200190815260200160002060003373ffffffffffffffffffffffffffffffffffffffff1673ffffffffffffffffffffffffffffffffffffffff168152602001908152602001600020548211151515610d2b57600080fd5b600073ffffffffffffffffffffffffffffffffffffffff168373ffffffffffffffffffffffffffffffffffffffff1614151515610d6757600080fd5b610db8826000808773ffffffffffffffffffffffffffffffffffffffff1673ffffffffffffffffffffffffffffffffffffffff16815260200190815260200160002054612be090919063ffffffff16565b6000808673ffffffffffffffffffffffffffffffffffffffff1673ffffffffffffffffffffffffffffffffffffffff16815260200190815260200160002081905550610e4b826000808673ffffffffffffffffffffffffffffffffffffffff1673ffffffffffffffffffffffffffffffffffffffff16815260200190815260200160002054612bf990919063ffffffff16565b6000808573ffffffffffffffffffffffffffffffffffffffff1673ffffffffffffffffffffffffffffffffffffffff16815260200190815260200160002081905550610f1c82600260008773ffffffffffffffffffffffffffffffffffffffff1673ffffffffffffffffffffffffffffffffffffffff16815260200190815260200160002060003373ffffffffffffffffffffffffffffffffffffffff1673ffffffffffffffffffffffffffffffffffffffff16815260200190815260200160002054612be090919063ffffffff16565b600260008673ffffffffffffffffffffffffffffffffffffffff1673ffffffffffffffffffffffffffffffffffffffff16815260200190815260200160002060003373ffffffffffffffffffffffffffffffffffffffff1673ffffffffffffffffffffffffffffffffffffffff168152602001908152602001600020819055508273ffffffffffffffffffffffffffffffffffffffff168473ffffffffffffffffffffffffffffffffffffffff167fddf252ad1be2c89b69c2b068fc378daa952ba7f163c4a11628f55a4df523b3ef846040518082815260200191505060405180910390a3600190509392505050565b612ee081565b600860009054906101000a900460ff1681565b6000600360009054906101000a900473ffffffffffffffffffffffffffffffffffffffff1673ffffffffffffffffffffffffffffffffffffffff163373ffffffffffffffffffffffffffffffffffffffff1614151561108357600080fd5b600360149054906101000a900460ff1615151561109f57600080fd5b6110b482600154612bf990919063ffffffff16565b60018190555061110b826000808673ffffffffffffffffffffffffffffffffffffffff1673ffffffffffffffffffffffffffffffffffffffff16815260200190815260200160002054612bf990919063ffffffff16565b6000808573ffffffffffffffffffffffffffffffffffffffff1673ffffffffffffffffffffffffffffffffffffffff168152602001908152602001600020819055508273ffffffffffffffffffffffffffffffffffffffff167f0f6798a560793a54c3bcfe86a93cde1e73087d944c0ea20544137d4121396885836040518082815260200191505060405180910390a28273ffffffffffffffffffffffffffffffffffffffff16600073ffffffffffffffffffffffffffffffffffffffff167fddf252ad1be2c89b69c2b068fc378daa952ba7f163c4a11628f55a4df523b3ef846040518082815260200191505060405180910390a36001905092915050565b6000806005805490506001850111156112cb577f3f7334c08687a0ce23cb465db8ff6df09448ee3e8e27789a21f6e8487d366abd3385604051808373ffffffffffffffffffffffffffffffffffffffff1673ffffffffffffffffffffffffffffffffffffffff16815260200180602001838152602001828103825260168152602001807f496e76616c6964206964206f66207175657374696f6e00000000000000000000815250602001935050505060405180910390a1600091506117ec565b604051806000019050604051809103902060001916836040516020018082805190602001908083835b60208310151561131957805182526020820191506020810190506020830392506112f4565b6001836020036101000a0380198251168184511680821785525050505050509050019150506040516020818303038152906040526040518082805190602001908083835b602083101515611382578051825260208201915060208101905060208303925061135d565b6001836020036101000a0380198251168184511680821785525050505050509050019150506040518091039020600019161415611466577f3f7334c08687a0ce23cb465db8ff6df09448ee3e8e27789a21f6e8487d366abd3385604051808373ffffffffffffffffffffffffffffffffffffffff1673ffffffffffffffffffffffffffffffffffffffff168152602001806020018381526020018281038252601a8152602001807f506c6561736520616e7377657220746865207175657374696f6e000000000000815250602001935050505060405180910390a1600091506117ec565b60058481548110151561147557fe5b906000526020600020906004020160020160009054906101000a900460ff1615611546577f3f7334c08687a0ce23cb465db8ff6df09448ee3e8e27789a21f6e8487d366abd3385604051808373ffffffffffffffffffffffffffffffffffffffff1673ffffffffffffffffffffffffffffffffffffffff168152602001806020018381526020018281038252601b8152602001807f4761682c2074686973206f6e6520686173206265656e20646f6e650000000000815250602001935050505060405180910390a1600091506117ec565b60058481548110151561155557fe5b906000526020600020906004020190503073ffffffffffffffffffffffffffffffffffffffff1663095ea7b33383600101546040518363ffffffff167c0100000000000000000000000000000000000000000000000000000000028152600401808373ffffffffffffffffffffffffffffffffffffffff1673ffffffffffffffffffffffffffffffffffffffff16815260200182815260200192505050602060405180830381600087803b15801561160c57600080fd5b505af1158015611620573d6000803e3d6000fd5b505050506040513d602081101561163657600080fd5b81019080805190602001909291905050505061165730338360010154610c51565b5060018160020160006101000a81548160ff0219169083151502179055508281600301908051906020019061168d929190612d52565b507f0f9c86b2af64d848dbabd731c8203645b66f94bb57a344971b67b430bd648b2181600001826003018360010154876040518080602001806020018581526020018481526020018381038352878181546001816001161561010002031660029004815260200191508054600181600116156101000203166002900480156117565780601f1061172b57610100808354040283529160200191611756565b820191906000526020600020905b81548152906001019060200180831161173957829003601f168201915b50508381038252868181546001816001161561010002031660029004815260200191508054600181600116156101000203166002900480156117d95780601f106117ae576101008083540402835291602001916117d9565b820191906000526020600020905b8154815290600101906020018083116117bc57829003601f168201915b5050965050505050505060405180910390a15b5092915050565b600360009054906101000a900473ffffffffffffffffffffffffffffffffffffffff1673ffffffffffffffffffffffffffffffffffffffff163373ffffffffffffffffffffffffffffffffffffffff1614151561184f57600080fd5b8060048190555050565b600060045461186733611d24565b1015611912577ff1c4eaebd0b34a82bff0e051b3731e883880041887d1b6ef6622f04f5b68557f33604051808273ffffffffffffffffffffffffffffffffffffffff1673ffffffffffffffffffffffffffffffffffffffff16815260200180602001828103825260198152602001807f436f756c64206e6f74206166666f7264207175657374696f6e000000000000008152506020019250505060405180910390a160009050611a8c565b61191e306004546126c8565b50600560806040519081016040528085858080601f0160208091040260200160405190810160405280939291908181526020018383808284378201915050505050508152602001600454815260200160001515815260200160206040519081016040528060008152508152509080600181540180825580915050906001820390600052602060002090600402016000909192909190915060008201518160000190805190602001906119d1929190612dd2565b506020820151816001015560408201518160020160006101000a81548160ff0219169083151502179055506060820151816003019080519060200190611a18929190612dd2565b505050507f2226a0528682b191f2fcbaa052841875222cf4eadda1dbfbb5d41e81abad6dfe83836004546001600580549050036040518080602001848152602001838152602001828103825286868281815260200192508082843782019150509550505050505060405180910390a1600190505b92915050565b600080600260003373ffffffffffffffffffffffffffffffffffffffff1673ffffffffffffffffffffffffffffffffffffffff16815260200190815260200160002060008573ffffffffffffffffffffffffffffffffffffffff1673ffffffffffffffffffffffffffffffffffffffff1681526020019081526020016000205490508083101515611ba4576000600260003373ffffffffffffffffffffffffffffffffffffffff1673ffffffffffffffffffffffffffffffffffffffff16815260200190815260200160002060008673ffffffffffffffffffffffffffffffffffffffff1673ffffffffffffffffffffffffffffffffffffffff16815260200190815260200160002081905550611c38565b611bb78382612be090919063ffffffff16565b600260003373ffffffffffffffffffffffffffffffffffffffff1673ffffffffffffffffffffffffffffffffffffffff16815260200190815260200160002060008673ffffffffffffffffffffffffffffffffffffffff1673ffffffffffffffffffffffffffffffffffffffff168152602001908152602001600020819055505b8373ffffffffffffffffffffffffffffffffffffffff163373ffffffffffffffffffffffffffffffffffffffff167f8c5be1e5ebec7d5bd14f71427d1e84f3dd0314c0f7b2291e5b200ac8c7c3b925600260003373ffffffffffffffffffffffffffffffffffffffff1673ffffffffffffffffffffffffffffffffffffffff16815260200190815260200160002060008873ffffffffffffffffffffffffffffffffffffffff1673ffffffffffffffffffffffffffffffffffffffff168152602001908152602001600020546040518082815260200191505060405180910390a3600191505092915050565b60008060008373ffffffffffffffffffffffffffffffffffffffff1673ffffffffffffffffffffffffffffffffffffffff168152602001908152602001600020549050919050565b600360009054906101000a900473ffffffffffffffffffffffffffffffffffffffff1673ffffffffffffffffffffffffffffffffffffffff163373ffffffffffffffffffffffffffffffffffffffff16141515611dc857600080fd5b600360009054906101000a900473ffffffffffffffffffffffffffffffffffffffff1673ffffffffffffffffffffffffffffffffffffffff167ff8df31144d9c2f0f6b59d69b8b98abd5459d07f2742c4df920b25aae33c6482060405160405180910390a26000600360006101000a81548173ffffffffffffffffffffffffffffffffffffffff021916908373ffffffffffffffffffffffffffffffffffffffff160217905550565b6000600454905090565b6000600360009054906101000a900473ffffffffffffffffffffffffffffffffffffffff1673ffffffffffffffffffffffffffffffffffffffff163373ffffffffffffffffffffffffffffffffffffffff16141515611ed957600080fd5b600360149054906101000a900460ff16151515611ef557600080fd5b6001600360146101000a81548160ff0219169083151502179055507fae5184fba832cb2b1f702aca6117b8d265eaf03ad33eb133f19dde0f5920fa0860405160405180910390a16001905090565b600360009054906101000a900473ffffffffffffffffffffffffffffffffffffffff1681565b60008060008060007f8a36f5a234186d446e36a7df36ace663a05a580d9bea2dd899c6dd76a075d5fa60006040518082815260200191505060405180910390a1600580549050600189011115612066577f3f7334c08687a0ce23cb465db8ff6df09448ee3e8e27789a21f6e8487d366abd3389604051808373ffffffffffffffffffffffffffffffffffffffff1673ffffffffffffffffffffffffffffffffffffffff16815260200180602001838152602001828103825260168152602001807f496e76616c6964206964206f66207175657374696f6e00000000000000000000815250602001935050505060405180910390a1600094506126bd565b7f8a36f5a234186d446e36a7df36ace663a05a580d9bea2dd899c6dd76a075d5fa60016040518082815260200191505060405180910390a1604051806000019050604051809103902060001916876040516020018082805190602001908083835b6020831015156120ec57805182526020820191506020810190506020830392506120c7565b6001836020036101000a0380198251168184511680821785525050505050509050019150506040516020818303038152906040526040518082805190602001908083835b6020831015156121555780518252602082019150602081019050602083039250612130565b6001836020036101000a0380198251168184511680821785525050505050509050019150506040518091039020600019161415612239577f3f7334c08687a0ce23cb465db8ff6df09448ee3e8e27789a21f6e8487d366abd3389604051808373ffffffffffffffffffffffffffffffffffffffff1673ffffffffffffffffffffffffffffffffffffffff168152602001806020018381526020018281038252601a8152602001807f506c6561736520616e7377657220746865207175657374696f6e000000000000815250602001935050505060405180910390a1600094506126bd565b7f8a36f5a234186d446e36a7df36ace663a05a580d9bea2dd899c6dd76a075d5fa60026040518082815260200191505060405180910390a160058881548110151561228057fe5b906000526020600020906004020160020160009054906101000a900460ff1615612351577f3f7334c08687a0ce23cb465db8ff6df09448ee3e8e27789a21f6e8487d366abd3389604051808373ffffffffffffffffffffffffffffffffffffffff1673ffffffffffffffffffffffffffffffffffffffff168152602001806020018381526020018281038252601b8152602001807f4761682c2074686973206f6e6520686173206265656e20646f6e650000000000815250602001935050505060405180910390a1600094506126bd565b60058881548110151561236057fe5b90600052602060002090600402019350855192507f8a36f5a234186d446e36a7df36ace663a05a580d9bea2dd899c6dd76a075d5fa836040518082815260200191505060405180910390a16123b9846001015484612c15565b91507f8a36f5a234186d446e36a7df36ace663a05a580d9bea2dd899c6dd76a075d5fa826040518082815260200191505060405180910390a1600090505b82811015612525573073ffffffffffffffffffffffffffffffffffffffff1663095ea7b3878381518110151561242957fe5b90602001906020020151846040518363ffffffff167c0100000000000000000000000000000000000000000000000000000000028152600401808373ffffffffffffffffffffffffffffffffffffffff1673ffffffffffffffffffffffffffffffffffffffff16815260200182815260200192505050602060405180830381600087803b1580156124b957600080fd5b505af11580156124cd573d6000803e3d6000fd5b505050506040513d60208110156124e357600080fd5b81019080805190602001909291905050505061251730878381518110151561250757fe5b9060200190602002015184610c51565b5080806001019150506123f7565b60018460020160006101000a81548160ff0219169083151502179055508684600301908051906020019061255a929190612d52565b507f0f9c86b2af64d848dbabd731c8203645b66f94bb57a344971b67b430bd648b21846000018560030186600101548b6040518080602001806020018581526020018481526020018381038352878181546001816001161561010002031660029004815260200191508054600181600116156101000203166002900480156126235780601f106125f857610100808354040283529160200191612623565b820191906000526020600020905b81548152906001019060200180831161260657829003601f168201915b50508381038252868181546001816001161561010002031660029004815260200191508054600181600116156101000203166002900480156126a65780601f1061267b576101008083540402835291602001916126a6565b820191906000526020600020905b81548152906001019060200180831161268957829003601f168201915b5050965050505050505060405180910390a1600194505b505050509392505050565b60008060003373ffffffffffffffffffffffffffffffffffffffff1673ffffffffffffffffffffffffffffffffffffffff16815260200190815260200160002054821115151561271757600080fd5b600073ffffffffffffffffffffffffffffffffffffffff168373ffffffffffffffffffffffffffffffffffffffff161415151561275357600080fd5b6127a4826000803373ffffffffffffffffffffffffffffffffffffffff1673ffffffffffffffffffffffffffffffffffffffff16815260200190815260200160002054612be090919063ffffffff16565b6000803373ffffffffffffffffffffffffffffffffffffffff1673ffffffffffffffffffffffffffffffffffffffff16815260200190815260200160002081905550612837826000808673ffffffffffffffffffffffffffffffffffffffff1673ffffffffffffffffffffffffffffffffffffffff16815260200190815260200160002054612bf990919063ffffffff16565b6000808573ffffffffffffffffffffffffffffffffffffffff1673ffffffffffffffffffffffffffffffffffffffff168152602001908152602001600020819055508273ffffffffffffffffffffffffffffffffffffffff163373ffffffffffffffffffffffffffffffffffffffff167fddf252ad1be2c89b69c2b068fc378daa952ba7f163c4a11628f55a4df523b3ef846040518082815260200191505060405180910390a36001905092915050565b600061297982600260003373ffffffffffffffffffffffffffffffffffffffff1673ffffffffffffffffffffffffffffffffffffffff16815260200190815260200160002060008673ffffffffffffffffffffffffffffffffffffffff1673ffffffffffffffffffffffffffffffffffffffff16815260200190815260200160002054612bf990919063ffffffff16565b600260003373ffffffffffffffffffffffffffffffffffffffff1673ffffffffffffffffffffffffffffffffffffffff16815260200190815260200160002060008573ffffffffffffffffffffffffffffffffffffffff1673ffffffffffffffffffffffffffffffffffffffff168152602001908152602001600020819055508273ffffffffffffffffffffffffffffffffffffffff163373ffffffffffffffffffffffffffffffffffffffff167f8c5be1e5ebec7d5bd14f71427d1e84f3dd0314c0f7b2291e5b200ac8c7c3b925600260003373ffffffffffffffffffffffffffffffffffffffff1673ffffffffffffffffffffffffffffffffffffffff16815260200190815260200160002060008773ffffffffffffffffffffffffffffffffffffffff1673ffffffffffffffffffffffffffffffffffffffff168152602001908152602001600020546040518082815260200191505060405180910390a36001905092915050565b6000600580549050905090565b6000600260008473ffffffffffffffffffffffffffffffffffffffff1673ffffffffffffffffffffffffffffffffffffffff16815260200190815260200160002060008373ffffffffffffffffffffffffffffffffffffffff1673ffffffffffffffffffffffffffffffffffffffff16815260200190815260200160002054905092915050565b600360009054906101000a900473ffffffffffffffffffffffffffffffffffffffff1673ffffffffffffffffffffffffffffffffffffffff163373ffffffffffffffffffffffffffffffffffffffff16141515612bd457600080fd5b612bdd81612c2b565b50565b6000828211151515612bee57fe5b818303905092915050565b60008183019050828110151515612c0c57fe5b80905092915050565b60008183811515612c2257fe5b04905092915050565b600073ffffffffffffffffffffffffffffffffffffffff168173ffffffffffffffffffffffffffffffffffffffff1614151515612c6757600080fd5b8073ffffffffffffffffffffffffffffffffffffffff16600360009054906101000a900473ffffffffffffffffffffffffffffffffffffffff1673ffffffffffffffffffffffffffffffffffffffff167f8be0079c531659141344cd1fd0a4f28419497f9722a3daafe3b4186f6b6457e060405160405180910390a380600360006101000a81548173ffffffffffffffffffffffffffffffffffffffff021916908373ffffffffffffffffffffffffffffffffffffffff16021790555050565b6080604051908101604052806060815260200160008152602001600015158152602001606081525090565b828054600181600116156101000203166002900490600052602060002090601f016020900481019282601f10612d9357805160ff1916838001178555612dc1565b82800160010185558215612dc1579182015b82811115612dc0578251825591602001919060010190612da5565b5b509050612dce9190612e52565b5090565b828054600181600116156101000203166002900490600052602060002090601f016020900481019282601f10612e1357805160ff1916838001178555612e41565b82800160010185558215612e41579182015b82811115612e40578251825591602001919060010190612e25565b5b509050612e4e9190612e52565b5090565b612e7491905b80821115612e70576000816000905550600101612e58565b5090565b905600a165627a7a723058208fdb1e2dcb194750ea7f0ba643362b85f7c5d5c9e36b3754bb0a1d06b203923d0029",
  "source": "pragma solidity ^0.4.18;\n\nimport \"openzeppelin-solidity/contracts/token/ERC20/MintableToken.sol\";\nimport \"openzeppelin-solidity/contracts/ownership/Ownable.sol\";\nimport \"openzeppelin-solidity/contracts/math/SafeMath.sol\";\n\ncontract MetaCoin is Ownable, MintableToken {\n\t// 8ball specific\n\tuint questionCost;\n\tQuestion[] questions;\n\n\t// ERC20 stuff\n\tstring symbol = \"META\";\n\tstring name = \"MetaToken\";\n\tuint8 public decimals = 2;\n\tuint256 public constant INITIAL_SUPPLY = 12000;\n\n\tevent QuestionAsked(string _question, uint _value, uint _id);\n\tevent QuestionFailed(address _asker, string _reason);\n\tevent Answered(string _question, string _answer, uint _value, uint _id);\n\tevent AnswerFailed(address _answerer, string _reason, uint _id);\n\tevent Debug(uint _test);\n\n\tconstructor() public {\n\t\tmint(msg.sender, INITIAL_SUPPLY);\n\t}\n\n\tstruct Question {\n\t\tstring question;\n\t\tuint value;\n\t\tbool isAnswered;\n\t\tstring answer;\n\t}\n\n\tfunction askQuestion(string question) external returns (bool) {\n\t\t// assert that sender can pay\n\t\tif (balanceOf(msg.sender) < questionCost) {\n\t\t\temit QuestionFailed(msg.sender, \"Could not afford question\");\n\t\t\treturn false;\n\t\t}\n\n\t\t// transfer\n\t\ttransfer(address(this), questionCost);\n\n\t\t// clean up\n\t\tquestions.push(Question(question, questionCost, false, \"\"));\n\t\temit QuestionAsked(question, questionCost, questions.length - 1);\n\t\treturn true;\n\t}\n\n\tfunction setQuestionCost(uint cost) external onlyOwner {\n\t\tquestionCost = cost;\n\t}\n\n\tfunction getQuestionCost() public view returns (uint) {\n\t\treturn questionCost;\n\t}\n\n\tfunction getQuestionCount() public view returns (uint) {\n\t\treturn questions.length;\n\t}\n\n\tfunction getQuestionByID(uint question_id) public view returns (string question,\n\t\tbool isAnswered,\n\t\tstring answer\n\t) {\n\t\trequire(question_id + 1 <= questions.length);\n\t\tQuestion memory q = questions[question_id];\n\t\treturn (q.question, q.isAnswered, q.answer);\n\t}\n\n\tfunction answerQuestion(uint question_id, string answer) public returns (bool) {\n\t\t// do checks\n\t\tif (question_id + 1 > questions.length) {\n\t\t\temit AnswerFailed(msg.sender, \"Invalid id of question\", question_id);\n\t\t\treturn false;\n\t\t}\n\t\tif (keccak256(abi.encodePacked(answer)) == keccak256(\"\")) {\n\t\t\temit AnswerFailed(msg.sender, \"Please answer the question\", question_id);\n\t\t\treturn false;\n\t\t}\n\t\tif (questions[question_id].isAnswered) {\n\t\t\temit AnswerFailed(msg.sender, \"Gah, this one has been done\", question_id);\n\t\t\treturn false;\n\t\t}\n\n\t\tQuestion storage q = questions[question_id];\n\n\t\t// transfer\n\t\tthis.approve(msg.sender, q.value);\n\t\ttransferFrom(address(this), msg.sender, q.value);\n\n\t\t// modify question\n\t\tq.isAnswered = true;\n\t\tq.answer = answer;\n\t\temit Answered(q.question, q.answer, q.value, question_id);\n\t}\n\n\t// TODO: refactor copied code from above method\n\tfunction bulkAnswerQuestion(uint question_id, string answer, address[] receivers) public returns (bool) {\n\t\t// do checks\n\t\temit Debug(0);\n\t\tif (question_id + 1 > questions.length) {\n\t\t\temit AnswerFailed(msg.sender, \"Invalid id of question\", question_id);\n\t\t\treturn false;\n\t\t}\n\t\temit Debug(1);\n\t\tif (keccak256(abi.encodePacked(answer)) == keccak256(\"\")) {\n\t\t\temit AnswerFailed(msg.sender, \"Please answer the question\", question_id);\n\t\t\treturn false;\n\t\t}\n\t\temit Debug(2);\n\t\tif (questions[question_id].isAnswered) {\n\t\t\temit AnswerFailed(msg.sender, \"Gah, this one has been done\", question_id);\n\t\t\treturn false;\n\t\t}\n\n\t\tQuestion storage q = questions[question_id];\n\n\t\t// transfer\n\t\tuint len = receivers.length;\n\t\temit Debug(len);\n\t\tuint price = SafeMath.div(q.value, len);\n\t\temit Debug(price);\n\t\tfor (uint i = 0; i < len; i++) {\n\t\t\tthis.approve(receivers[i], price);\n\t\t\ttransferFrom(address(this), receivers[i], price);\n\t\t}\n\n\t\t// modify question\n\t\tq.isAnswered = true;\n\t\tq.answer = answer;\n\t\temit Answered(q.question, q.answer, q.value, question_id);\n\t\treturn true;\n\t}\n}\n",
  "sourcePath": "C:\\Users\\elena\\Documents\\Harbor Demo\\magic8ball\\contracts\\MetaCoin.sol",
  "compiler": {
    "name": "solc",
    "version": "0.4.24+commit.e67f0147.Emscripten.clang"
  },
  "schemaVersion": "2.0.1",
  "updatedAt": "2018-10-17T05:11:38.044Z"
}